:1000000012C02CC02BC02AC029C028C04AC226C09A
:1000100025C024C023C071C3B7C320C01FC01EC0E9
:100020001DC01CC01BC011241FBECFE5D4E0DEBF25
:10003000CDBF11E0A0E6B0E0EEE7FCE102C0059024
:100040000D92AC36B107D9F713E0ACE6B1E001C0D0
:100050001D92A232B107E1F76ADC0FCED1CFDF9259
:10006000EF92FF920F931F93CF93DF9386EA33D2E1
:1000700086EA76D282E3EBD287EAC6D210D3E82EA4
:100080000ED3182F0CD3082F0AD3D82F08D3D82E6D
:100090001DD3C82FC5D2312F20E0FF24E22AF32A36
:1000A00089EA92E0B70199D43D2F20E010E0022BBD
:1000B000132B87EB91E0B80190D49C2F80E0CD2DDD
:1000C000D0E0C82BD92B80E392E0BE0186D4F09219
:1000D000B201E092B1011093B4010093B301D09347
:1000E000B601C093B501DF91CF911F910F91FF90A1
:1000F000EF90DF900895CF93DF930F92CDB7DEB7E7
:1001000086EAE9D186EA2CD280E0A1D287EA7CD2C5
:10011000DDD2898385D289810F90DF91CF910895B7
:1001200086EA1ED28DE293D288E291D279D286EA13
:1001300017D281E38CD288E08AD272D2089517BA9E
:1001400087B38F6087BB14BA11BA18BA81E088BB35
:100150008FEF85BB82BB089580E395E79BBD8ABD89
:100160008FB58FBD8EB58C608EBD89B7806189BF1C
:100170000895B99A1BBC1ABC8FB581608FBD8FB52D
:1001800080688FBD8EB583608EBD0895BA9A19BC04
:1001900018BC8FB581608FBD8FB580628FBD8EB565
:1001A00083608EBD0895BB9A13BC85B5806485BD00
:1001B00085B5806285BD85B5846085BD0895CF9382
:1001C000DF93E82FF0E0A42FB0E0C0E4DCE937C013
:1001D00088B599B58E179F0728F488B599B501960B
:1001E00099BD88BD88B599B5E817F90728F488B591
:1001F00099B5019799BD88BD83B5861718F483B565
:100200008F5F83BD83B5681718F483B5815083BDB4
:100210008AB59BB58A179B0728F48AB59BB50196CA
:100220009BBD8ABD8AB59BB5A817B90728F48AB5C6
:100230009BB501979BBD8ABDCE010197F1F748B5EB
:1002400059B573B58AB59BB521E030E08A179B0795
:1002500011F420E030E091E0761709F490E081E0BD
:100260004E175F0709F480E0892B90E0822B932BD7
:10027000009709F0ADCFDF91CF9108952F923F9273
:100280004F925F926F927F928F929F92AF92BF92A6
:10029000CF92DF92EF92FF920F931F93CF93DF9352
:1002A0005C014B013A01190144245524C9C088B5A9
:1002B00099B58A159B0528F488B599B5019699BD1D
:1002C00088BD88B599B5A816B90628F488B599B53A
:1002D000019799BD88BD83B590E08815990518F4FC
:1002E00083B58F5F83BD83B590E08816990618F4B7
:1002F00083B5815083BD8AB59BB58615970528F4D3
:100300008AB59BB501969BBD8ABD8AB59BB568161B
:10031000790628F48AB59BB501979BBD8ABDC201B9
:10032000B10197D86B017C012BEA3AEA4AEA50E422
:1003300018D6EB01182F092F9801862F9D2FA32F78
:10034000B22FBC01CD0120E030E040E85FE306D8E9
:1003500087FD73C098018C2F9D2FA32FB22FBC0156
:10036000CD0120E030E04FE753E4A0D718160CF0A1
:100370005BC0C701B60120E030E04AE754E4EFD6A5
:10038000C62EF72EE82ED92E862F9F2DAE2DBD2DF1
:10039000BC01CD0120E030E04AE755E4E2D5EB01B5
:1003A000182F092F9801862F9D2FA32FB22FBC0144
:1003B000CD0120E030E040E85FE3D0D787FD2EC0DC
:1003C00098018C2F9D2FA32FB22FBC01CD0120E0CF
:1003D0003FEF4FE757E46AD71816BCF48C2D9F2DDA
:1003E000AE2DBD2DBC01CD0120E030E040E251E456
:1003F000B8D5D8D306C080E991E00197F1F76150F4
:10040000704061157105B9F71BC098018C2F9D2FA5
:10041000A32FB22FBC01CD01C5D302C061E070E0B3
:10042000CB010197F1F70CC098018C2F9D2FA32FC2
:10043000B22FBC01CD01B6D301C061E06A95F1F7DE
:1004400048B559B523B56AB57BB530E081E02815CC
:10045000390509F480E021E04A155B0509F420E044
:10046000282B30E081E090E06615770511F480E0FC
:1004700090E0822B932B009709F019CFDF91CF9159
:100480001F910F91FF90EF90DF90CF90BF90AF90B2
:100490009F908F907F906F905F904F903F902F90A4
:1004A00008951F920F920FB60F9211240F900FBE56
:1004B0000F901F901895CF93DF93CDB7DEB781E2F1
:1004C00090E0FC01108280E290E024E3FC012083B4
:1004D000DF91CF910895CF93DF9300D0CDB7DEB7F2
:1004E0008A8386E590E024EAFC012083000086E50B
:1004F00090E0FC0180818823D4F781E290E0FC0148
:100500008081887F89838981883029F08981803141
:1005100011F081E020C083E290E02A81FC01208379
:1005200086E590E024E8FC012083000086E590E069
:10053000FC0180818823D4F781E290E0FC01808176
:10054000887F89838981883129F08981803411F0FD
:1005500081E001C080E00F900F90DF91CF9108956E
:10056000CF93DF9300D0CDB7DEB78A8386E590E0E6
:1005700024EAFC012083000086E590E0FC018081F4
:100580008823D4F781E290E0FC018081887F898311
:100590008981883019F08981803171F583E290E09A
:1005A0002A81FC01208386E590E024E8FC01208379
:1005B000000086E590E0FC0180818823D4F781E289
:1005C00090E0FC018081887F89838981803219F0E5
:1005D0008981883599F486E590E024E9FC0120833F
:1005E000000086E590E0FC018081882F90E080711A
:1005F00090700097B1F701C00000B8CF00000F90D5
:100600000F90DF91CF910895CF93DF930F92CDB7E5
:10061000DEB7898389815FDF0F90DF91CF910895E5
:10062000CF93DF93CDB7DEB786E590E024E9FC01F8
:100630002083000086E590E0FC018081882F90E017
:10064000807190700097B1F7DF91CF910895CF93AB
:10065000DF9300D0CDB7DEB78A8383E290E02A81B2
:10066000FC01208386E590E024E8FC012083000063
:1006700086E590E0FC0180818823D4F781E290E058
:10068000FC018081887F89838981883211F081E033
:1006900001C080E00F900F90DF91CF910895CF932C
:1006A000DF93CDB7DEB786E590E024ECFC01208334
:1006B000000086E590E0FC0180818823D4F783E286
:1006C00090E0FC018081DF91CF910895CF93DF937B
:1006D000CDB7DEB786E590E024E8FC01208300007A
:1006E00086E590E0FC0180818823D4F783E290E0E6
:1006F000FC018081DF91CF9108951F920F920FB678
:100700000F9211242F938F939F93EF93FF93CF9387
:10071000DF9300D000D0CDB7DEB78BE290E0FC01D4
:1007200080818A838CE290E0FC0180818B838A81C6
:10073000887189838091AE018F5F8F718C838091E6
:10074000AF019C81981719F482E089830BC08C81DA
:100750008093AE018C81882F90E084579E4F2B812F
:10076000FC01208389818093B0012496DEBFCDBF38
:10077000DF91CF91FF91EF919F918F912F910F90EA
:100780000FBE0F901F9018951F920F920FB60F92E9
:1007900011242F933F938F939F93EF93FF93CF93C6
:1007A000DF930F92CDB7DEB79091AC018091AD0190
:1007B0009817A1F08091AD018F5F8F718983898136
:1007C0008093AD018CE290E02981222F30E0245902
:1007D0003E4FF9012081FC01208309C08AE290E0AC
:1007E0002AE230E0F90120812F7DFC0120830F9067
:1007F000DF91CF91FF91EF919F918F913F912F9139
:100800000F900FBE0F901F901895CF93DF9300D0DD
:10081000CDB7DEB79A8389831092AC011092AD01F7
:100820001092AE011092AF0189819A81992354F4FC
:100830008BE290E022E0FC01208389819A819F77FE
:100840009A83898380E490E029813A81232F33279A
:10085000FC01208389E290E02981FC0120838AE267
:1008600090E028E9FC01208380E490E026E8FC0188
:1008700020830F900F90DF91CF910895CF93DF9356
:1008800000D0CDB7DEB79091AE018091AF0198173F
:1008900019F480E091E01BC08091AF018F5F8F71F0
:1008A000898389818093AF018981882F90E0845763
:1008B0009E4FFC0180818A838091B001882F90E057
:1008C000382F22278A81882F90E0820F931F0F9064
:1008D0000F90DF91CF910895CF93DF9300D0CDB7E4
:1008E000DEB78A838091AC018F5F8F7189830000AE
:1008F0008091AD0199819817D9F38981882F90E073
:1009000084599E4F2A81FC01208389818093AC0108
:100910008AE290E02AE230E0F90120812062FC01C5
:1009200020830F900F90DF91CF910895CF93DF93A5
:1009300000D0CDB7DEB79A8389830CC089819A81B4
:10094000FC018081282F89819A8101969A8389836D
:10095000822FC2DF89819A81FC018081882371F70F
:100960000F900F90DF91CF9108951F93CF93DF9356
:1009700000D000D00F92CDB7DEB79D838C8302C02C
:10098000812FAADF8C819D819A8389838C819D81AF
:1009900001969D838C8389819A81FC0114911B832C
:1009A0008B81182F112361F70F900F900F900F90EC
:1009B0000F90DF91CF911F910895CF93DF9300D0D7
:1009C000CDB7DEB79A83898389819A81FC01108231
:1009D0000F900F90DF91CF910895CF93DF9300D0C8
:1009E00000D00F92CDB7DEB79B838A837D836C8363
:1009F0008A819B81FC0180818C3350F48A819B81A8
:100A0000FC018081282F2F5F8A819B81FC0120833C
:100A10008BE3898324C089818B33F4F489819927FE
:100A200087FD909501962981332727FD30954A81CE
:100A30005B81220F331F240F351F2F5F3F4FF901BA
:100A4000208131814A815B81880F991F840F951F16
:100A50000196FC01318320838981815089838981BA
:100A60008823CCF68A819B812C813D81FC013283D5
:100A700021830F900F900F900F900F90DF91CF91E7
:100A80000895AF92BF92CF92DF92EF92FF920F93B1
:100A90001F93CF93DF93CDB7DEB768970FB6F89467
:100AA000DEBF0FBECDBF988B8F8719821A821B8243
:100AB0001C828F859889FC0180818E838E81181617
:100AC0002CF080E090E0A0E0B0E059C01D8221C091
:100AD0008D81992787FD90952F853889880F991FDB
:100AE000820F931F0196FC0180819181AA2797FDB7
:100AF000A095BA2F29813A814B815C81820F931F87
:100B0000A41FB51F89839A83AB83BC838D818F5FBC
:100B10008D839D818E819817DCF28E81282F33275B
:100B200027FD3095432F532F89819A81AB81BC815A
:100B3000BC01CD01AFD7A22EB32EC42ED52EE62EEA
:100B4000F72E082F192FA98ABA8ACB8ADC8AED8A58
:100B5000FE8A0F8B188FCE0107969E012F5E3F4FA6
:100B600048E0F90100802F5F3F4FFC0100820196B1
:100B700041504423B1F78F819885A985BA85BC017E
:100B8000CD0168960FB6F894DEBF0FBECDBFDF91E2
:100B9000CF911F910F91FF90EF90DF90CF90BF907A
:100BA000AF900895CF92DF92EF92FF920F931F9331
:100BB0006B017C0120E030E040E05FE4A3D387FDDF
:100BC0000FC0C701B60120E030E040E05FE497D1FC
:100BD000F1D38B019C01005010402040304805C0EB
:100BE000C701B601E7D38B019C01B801C9011F9170
:100BF0000F91FF90EF90DF90CF900895A0E0B0E0CC
:100C0000E3E0F6E086C7EC014B01FA01888182300F
:100C100008F442C1DB019C91923008F43AC184305F
:100C200059F4943009F038C1998111968C9111973B
:100C3000981709F02BC130C1943009F42AC19230C1
:100C4000A9F4823009F028C1CE0128E0DC010D9022
:100C5000CD01DA010D92AD012150C1F7D4011196F9
:100C60008C91119799818923818315C1823009F470
:100C700010C1AA80BB80DB0112964D915C91139745
:100C8000CC80DD80EE80FF8014960D911D912D911A
:100C90003C911797C501841B950BDC0197FF04C09D
:100CA000AA27BB27A81BB90BA032B1050CF06AC05C
:100CB000181619068CF5280139010A2E04C07694FD
:100CC0006794579447940A94D2F741E050E060E06B
:100CD00070E004C0440F551F661F771FAA95D2F716
:100CE00041505040604070404023512362237323A1
:100CF00081E090E0A0E0B0E041155105610571058B
:100D000021F480E090E0A0E0B0E08C019D01042996
:100D100015292629372942C0009709F43FC0AA0E99
:100D2000BB1E260137010A2E04C07694679457949F
:100D300047940A94D2F741E050E060E070E004C0CC
:100D4000440F551F661F771FAA95D2F74150504098
:100D5000604070404C215D216E217F2181E090E058
:100D6000A0E0B0E0411551056105710521F480E076
:100D700090E0A0E0B0E06C017D01C428D528E62811
:100D8000F7280CC04A155B052CF400E010E020E0C9
:100D900030E004C05A01CC24DD2476018981D401DD
:100DA00011969C911197891709F445C0882329F061
:100DB0000C191D092E093F0908C0D701C601801B67
:100DC000910BA20BB30B8C019D0137FD04C0118266
:100DD000B382A2820BC081E08183B382A28230956C
:100DE0002095109501951F4F2F4F3F4F048315837A
:100DF000268337830DC0880F991FAA1FBB1F8483CA
:100E00009583A683B783828193810197938382839D
:100E100084819581A681B781AC01BD0141505040CC
:100E2000604070404F3F2FEF52072FEF62072FE3D4
:100E3000720708F30BC08183B382A2820C0D1D1DC3
:100E40002E1D3F1D048315832683378383E0808313
:100E5000448155816681778177FF1DC0DB01CA011E
:100E600081709070A070B070769567955795479592
:100E7000842B952BA62BB72B84839583A683B783CE
:100E80008281938101969383828305C0C0E6D0E07E
:100E900003C0E40101C0EF01CE01CDB7DEB7E0E150
:100EA00054C6A0E2B0E0E6E5F7E041C6DC01CB01C4
:100EB0008D839E83AF83B88729833A834B835C837A
:100EC000CE010596BE01675E7F4F6BD4CE010196C1
:100ED000BE016F5E7F4F65D4CE014996BE016F5E45
:100EE0007F4FAE01475F5F4F89DE81D3462F572F7B
:100EF000682F792FCB01BA01A096E2E034C6A0E2B8
:100F0000B0E0E4E8F7E013C6DC01CB018D839E83FB
:100F1000AF83B88729833A834B835C83CE010596E0
:100F2000BE01675E7F4F3DD4CE010196BE016F5E6C
:100F30007F4F37D48A8991E089278A8BCE014996E1
:100F4000BE016F5E7F4FAE01475F5F4F57DE4FD3ED
:100F5000462F572F682F792FCB01BA01A096E2E0D8
:100F600002C6A0E2B0E0E6EBF7E0D3C5DC01CB01BE
:100F70008D839E83AF83B88729833A834B835C83B9
:100F8000CE010596BE01675E7F4F0BD4CE01019660
:100F9000BE016F5E7F4F05D4998D923078F08989BC
:100FA0008230C0F0943019F4823041F4CCC08430E7
:100FB00019F4923079F4C7C0923051F481E02A8D4F
:100FC0009A89291709F480E08A8FCE014996BDC01D
:100FD000823051F481E02A8D9A89291709F480E042
:100FE0008A8BCE014196B1C04D8C5E8C6F8C78A0FF
:100FF0000D891E892F89388DE0E2F0E040E050E055
:1010000060E070E0882499245401CC24DD2476012A
:10101000C201817090700097D9F0C00ED11EE21EFF
:10102000F31EDB01CA01880D991DAA1DBB1D41E0FD
:1010300050E060E070E0C016D106E206F30620F052
:1010400040E050E060E070E0480F591F6A1F7B1FCE
:10105000880C991CAA1CBB1C37FF08C081E090E0DB
:10106000A0E0B0E0882A992AAA2ABB2A000F111F03
:10107000221F331F7694679457944794319741F613
:101080008B8D9C8D2B893C89820F931F02969C87A8
:101090008B8781E02A8D9A89291709F480E08A8755
:1010A0002B853C8517C0CA0181709070009761F054
:1010B000F694E794D794C79480E090E0A0E0B0E87D
:1010C000C82AD92AEA2AFB2A769567955795479523
:1010D0002F5F3F4F77FDE7CFC9010BC0440F551F6E
:1010E000661F771FF7FC4160CC0CDD1CEE1CFF1C5B
:1010F00001974030A0E05A07A0E06A07A0E47A0711
:1011000068F38B879C87DB01CA018F779070A07092
:10111000B07080349105A105B10561F447FD0AC0A6
:10112000C114D104E104F10429F0405C5F4F6F4F1A
:101130007F4F40784D875E876F87788B83E0898704
:10114000CE01099602C080E690E051D2462F572F7B
:10115000682F792FCB01BA01A096E0E1F6C4A8E18F
:10116000B0E0E4EBF8E0DDC4DC01CB018D839E83CD
:10117000AF83B88729833A834B835C83CE0105967E
:10118000BE016F5E7F4F0DD3CE010196BE01675F3A
:101190007F4F07D39989923008F476C089858230D1
:1011A00008F475C02A893A8523272A8B943011F0D8
:1011B000923021F4981709F067C06CC0843039F47C
:1011C0001D8A1E8A1F8A188E1C8A1B8A5DC0823067
:1011D00019F484E0898B58C02B893C898B859C85C8
:1011E000281B390B3C8B2B8B8D899E89AF89B88D41
:1011F000CD84DE84EF84F8888C159D05AE05BF058F
:1012000040F4880F991FAA1FBB1F215030403C8B10
:101210002B8BEFE1F0E000E010E020E030E440E074
:1012200050E060E070E08C159D05AE05BF0540F014
:10123000402B512B622B732B8C199D09AE09BF09D2
:101240003695279517950795880F991FAA1FBB1FDD
:10125000319749F78A019B010F7710702070307029
:10126000003411052105310559F447FD09C00097E7
:10127000A105B10529F0405C5F4F6F4F7F4F40786B
:101280004D8B5E8B6F8B788FCE01419605C0CE0162
:10129000099602C080E690E0AAD1462F572F682F0A
:1012A000792FCB01BA016896E8E057C4A8E1B0E015
:1012B000EBE5F9E03CC4DC01CB018D839E83AF8379
:1012C000B88729833A834B835C83CE010596BE01A0
:1012D0006F5E7F4F66D2CE010196BE01675F7F4F82
:1012E00060D28989823050F08985823038F0CE0111
:1012F0004196BE01675F7F4FBDD201C08FEF6896F8
:10130000E2E031C4A8E1B0E0E7E8F9E010C4DC01B4
:10131000CB018D839E83AF83B88729833A834B8328
:101320005C83CE010596BE016F5E7F4F3AD2CE013F
:101330000196BE01675F7F4F34D28989823050F0B9
:101340008985823038F0CE014196BE01675F7F4FBC
:1013500091D201C08FEF6896E2E005C4A8E1B0E049
:10136000E3EBF9E0E4C3DC01CB018D839E83AF8323
:10137000B88729833A834B835C83CE010596BE01EF
:101380006F5E7F4F0ED2CE010196BE01675F7F4F29
:1013900008D28989823050F08985823038F0CE01B8
:1013A0004196BE01675F7F4F65D201C081E06896BC
:1013B000E2E0D9C3ACE0B0E0EFEDF9E0B6C3DC01A8
:1013C000CB0189839A83AB83BC83CE010196BE0196
:1013D0006B5F7F4FE6D18D81823069F1823058F1A9
:1013E000843039F02F81388537FD25C02F31310504
:1013F00044F08E81882321F100E010E020E030E805
:1014000023C08EE190E0821B930B09851A852B8502
:101410003C8504C036952795179507958A95D2F790
:101420008E81882389F030952095109501951F4F66
:101430002F4F3F4F09C000E010E020E030E004C033
:101440000FEF1FEF2FEF3FE7B801C9012C96E4E043
:1014500088C3A8E0B0E0EEE2FAE063C36B017C0170
:101460001A82611571058105910519F482E089835D
:101470005EC083E089830EE110E01C830B83CD8284
:10148000DE82EF82F886C701B6015DD09C01215053
:10149000304037FF39C0EE27FF27E21BF30B81E016
:1014A00090E0A0E0B0E00E2E04C0880F991FAA1FA4
:1014B000BB1F0A94D2F70197A109B1098C219D2184
:1014C000AE21BF2141E050E060E070E00097A1054F
:1014D000B10521F440E050E060E070E004C0F69413
:1014E000E794D794C794EA95D2F7C42AD52AE62A76
:1014F000F72ACD82DE82EF82F8868EE190E0821BB1
:10150000930B9C838B8313C02115310581F0022E30
:1015100004C0CC0CDD1CEE1CFF1C0A94D2F7CD825B
:10152000DE82EF82F886021B130B1C830B83CE0135
:1015300001965DD0462F572F682F792FCB01BA0126
:101540002896E8E00AC3CF92DF92EF92FF920F93C2
:101550001F938B019C01003080E0180781E0280771
:1015600080E0380758F40F3F11052105310509F0D7
:1015700090F480E090E0A0E0B0E016C00030E0E041
:101580001E07E0E02E07E1E03E0750F480E190E026
:10159000A0E0B0E009C088E090E0A0E0B0E004C0C6
:1015A00088E190E0A0E0B0E040E250E060E070E070
:1015B000481B590B6A0B7B0B6801790104C0F69438
:1015C000E794D794C7948A95D2F7D701C601885972
:1015D0009F4FFC018081481B510961097109CA01B3
:1015E0001F910F91FF90EF90DF90CF900895CF92D1
:1015F000DF92EF92FF920F931F93DC0114964D91AF
:101600005D916D917C9117971196EC9111978C914A
:10161000823020F460618FEF90E0A8C0843009F43C
:101620009FC0823009F496C04115510561057105CE
:1016300009F493C012968D919C9113972FEF8238E5
:1016400092070CF05BC022E83FEF281B390B2A31D0
:1016500031056CF56A017B01022E04C0F694E79413
:10166000D794C7940A94D2F781E090E0A0E0B0E06C
:1016700004C0880F991FAA1FBB1F2A95D2F7019794
:10168000A109B10984239523A623B72341E050E0A3
:1016900060E070E00097A105B10521F440E050E062
:1016A00060E070E04C295D296E297F2904C040E08C
:1016B00050E060E070E0DB01CA018F779070A070AD
:1016C000B07080349105A105B10539F447FF09C018
:1016D000405C5F4F6F4F7F4F04C0415C5F4F6F4F67
:1016E0007F4F81E090E0403020E0520720E0620729
:1016F00020E4720738F580E090E024C0803891053E
:101700007CF58A019B010F771070207030700034D7
:1017100011052105310539F447FF09C0405C5F4FD1
:101720006F4F7F4F04C0415C5F4F6F4F7F4F77FD1E
:1017300003C081589F4F06C076956795579547958A
:1017400080589F4F97E076956795579547959A955E
:10175000D1F70CC080E090E005C080E090E006C0CA
:101760008FEF90E040E050E060E070E0982F9795B8
:1017700099279795A62FAF77E795EE27E79586955A
:101780003A2F392B282F2E2B842F952FA32FB22FB2
:10179000BC01CD011F910F91FF90EF90DF90CF9092
:1017A0000895DC01FB014C9111965C911197129602
:1017B0008C911297682F6F7770E0982F991F992757
:1017C000991F13962C911397822F880F892B90E0E5
:1017D000221F2227221F2183009739F54115510529
:1017E0006105710511F482E029C082E89FEF9383BF
:1017F000828327E0440F551F661F771F2A95D1F774
:1018000083E0808309C0440F551F661F771F8281C4
:101810009381019793838283403080E0580780E072
:10182000680780E4780778F320C08F3F910579F44A
:10183000411551056105710519F484E0808308950F
:1018400064FF03C081E0808310C010820EC08F57F8
:1018500090409383828383E0808387E0440F551F09
:10186000661F771F8A95D1F770644483558366831A
:1018700077830895CF93FC01DB019081923008F4C7
:101880004CC08C91823008F448C0943069F42181B6
:10189000843039F411968C91119790E0821B910954
:1018A00044C02223D1F13FC0843021F0923041F472
:1018B0008230B1F111968C9111978823A1F12DC03E
:1018C000C181823001F111968C911197C817D9F41A
:1018D0008281938112962D913C9113972817390795
:1018E00094F082179307BCF044815581668177811B
:1018F00014968D919D910D90BC91A02D8417950704
:10190000A607B70718F4CC2341F00DC048175907B4
:101910006A077B0728F4CC2331F081E090E005C012
:1019200080E090E002C08FEF9FEFCF91089580E1BB
:1019300090E06BD7789403D41CD428D434D48FEFA0
:1019400060E040E03CD48FEF6FEF40E038D480E0BF
:101950006FEF40E034D480E06FEF4FEF30D480E0A1
:1019600060E04FEF2CD48FEF60E04FEF28D48FEF83
:101970006FEF4FEF24D480E060E040E020D488E8AF
:1019800093E120E931E0F9013197F1F70197D9F7B7
:101990008FEF60E040E013D47AE0672E712CEFEF18
:1019A0008E2E912C3CD1B30162D0082F0F5FC4E082
:1019B000D0E0AA24BB2433D1B40159D00196A80E9B
:1019C000B91E2197C1F7CC24DD24C0E0D0E010E09F
:1019D00007C025D1B4014BD00196C80ED91E21965F
:1019E000C017D107B4F3C601B8012DD0EB01683C94
:1019F000710508F4E296BE0180E090E02ADD6B01FB
:101A00007C012DEC3CEC4CE45FE3ABDACBD8D62F79
:101A1000C701B6012AE939E949E15EE3A2DAC2D891
:101A2000462F9501220F331FC50163E0880F991FD0
:101A30006A95E1F7280F391F8C2F90E06D2F70E029
:101A400050E01CD4AFCFAA1BBB1B51E107C0AA1F9B
:101A5000BB1FA617B70710F0A61BB70B881F991F4F
:101A60005A95A9F780959095BC01CD01089597FBF3
:101A7000092E07260AD077FD04D0E5DF06D0002026
:101A80001AF4709561957F4F0895F6F790958195BA
:101A90009F4F089597FB092E05260ED057FD04D0C1
:101AA00014D00AD0001C38F45095409530952195FB
:101AB0003F4F4F4F5F4F0895F6F790958095709583
:101AC00061957F4F8F4F9F4F0895A1E21A2EAA1B59
:101AD000BB1BFD010DC0AA1FBB1FEE1FFF1FA217DE
:101AE000B307E407F50720F0A21BB30BE40BF50BDB
:101AF000661F771F881F991F1A9469F76095709564
:101B0000809590959B01AC01BD01CF0108952F9266
:101B10003F924F925F926F927F928F929F92AF927D
:101B2000BF92CF92DF92EF92FF920F931F93CF93CA
:101B3000DF93CDB7DEB7CA1BDB0B0FB6F894DEBF61
:101B40000FBECDBF09942A88398848885F846E8487
:101B50007D848C849B84AA84B984C884DF80EE80D1
:101B6000FD800C811B81AA81B981CE0FD11D0FB6DA
:101B7000F894DEBF0FBECDBFED0108958F929F9206
:101B8000AF92BF92CF92DF92EF92FF92CF93DF930B
:101B9000EC0188819981AA81BB810097A105B105DB
:101BA00021F484E299EDABE5B7E0BC01CD012DE174
:101BB00033EF41E050E06EDF49015A0127EA31E49A
:101BC00040E050E03BD06B017C01C501B4012CEE3C
:101BD00034EF4FEF5FEF32D0DC01CB01C80ED91EDE
:101BE000EA1EFB1EF7FE08C08FEF9FEFAFEFBFE7C7
:101BF000C80ED91EEA1EFB1EC882D982EA82FB8269
:101C0000C6019F77DF91CF91FF90EF90DF90CF904B
:101C1000BF90AF909F908F900895B0DF089588E6B1
:101C200091E0ACDF0895A0E0B0E08093680190936C
:101C30006901A0936A01B0936B010895629FD0017E
:101C4000739FF001829FE00DF11D649FE00DF11D77
:101C5000929FF00D839FF00D749FF00D659FF00D26
:101C60009927729FB00DE11DF91F639FB00DE11D13
:0E1C7000F91FBD01CF0111240895F894FFCF94
:101C7E000000000000000000000102020303030345
:101C8E0004040404040404040505050505050505FE
:101C9E0005050505050505050606060606060606DE
:101CAE0006060606060606060606060606060606C6
:101CBE0006060606060606060707070707070707AE
:101CCE000707070707070707070707070707070796
:101CDE000707070707070707070707070707070786
:101CEE000707070707070707070707070707070776
:101CFE00070707070707070708080808080808085E
:101D0E000808080808080808080808080808080845
:101D1E000808080808080808080808080808080835
:101D2E000808080808080808080808080808080825
:101D3E000808080808080808080808080808080815
:101D4E000808080808080808080808080808080805
:101D5E0008080808080808080808080808080808F5
:101D6E0008080808080808080808080808080808E5
:0C1D7E0008080808080808080100000018
:00000001FF
